:020000042000DA
:1000000000000120910100207F03002081030020D7
:1000100083030020850300208703002000000000E8
:100020000000000000000000000000008903002024
:100030008B030020000000008D0300208F030020B0
:1000400091030020930300209503002097030020D4
:10005000990300209B0300209D0300209F030020A4
:10006000A1030020A3030020A5030020A703002074
:10007000A9030020AB030020AD030020AF03002044
:10008000B1030020B3030020B50300201D050020AC
:10009000B9030020BB030020BD030020BF030020E4
:1000A000C1030020C3030020C5030020850B0020EE
:1000B0007D0C0020CB030020CD030020CF030020C7
:1000C000D1030020D3030020D5030020D703002054
:1000D000D9030020DB030020DD030020DF03002024
:1000E000E1030020E3030020E5030020E7030020F4
:1000F000E9030020EB030020ED030020EF030020C4
:10010000F1030020F3030020F5030020F703002093
:10011000F9030020FB030020FD030020FF03002063
:10012000010400200304002005040020070400202F
:10013000090400200B0400200D0400200F040020FF
:1001400011040020130400201504002017040020CF
:10015000190400201B0400201D0400201F0400209F
:10016000210400202304002025040020270400206F
:10017000290400202B0400202D0400202F0400203F
:1001800031040020330400200000000000000000C3
:100190004FF0000BDFF8BE020068DFF8B612096806
:1001A00001F0030100F01C00142801D14BF0020BF8
:1001B000002901D04BF0010BBBF1000F05D0A7487F
:1001C000A749DFF8722200F09FF8A64880470BF09D
:1001D000020ABAF1000F0CD0DFF86E02DFF86E12DF
:1001E00002680B680FB44FF000024FF0FF0302608B
:1001F0000B609D4800220123022808D1DFF83E123F
:100200000A60DFF842120A60DFF836120B6001283C
:1002100008D1DFF82E120A60DFF82A120A60DFF830
:100220001E120B609148002809D191489149924AC9
:1002300000F032F891489249924A00F02DF8924825
:100240009249934A00F028F892489349DFF8E62152
:1002500000F05AF8BBF1000F12D090489049DFF837
:10026000DA2100F051F80BF0020ABAF1000F07D0C2
:100270000FBC02600B6000BFAFF30080AFF30080E3
:10028000DFF820020FF2030E00474FF000004FF09E
:100290000001DFF814F2FEE72DE9F841884225D08D
:1002A000B2EB010200D5FEE740EA010313F00303BD
:1002B00002D000F01DF819E04FF000039046121133
:1002C000F7D09A421CBFF0C8F0C103F10103F8D186
:1002D00008F00F08B8F1000F08D004780C7000F196
:1002E000010001F10101B8F10108F6D1BDE8F88182
:1002F00008B54FF0000303780B7000F1010001F125
:100300000101013AF7D108BD884237D000F0030659
:10031000002E14D04FF00405A5EB06044FF008079B
:1003200007FB06F8914669FA08F9002C07D080F817
:10033000009069FA07F900F10100013CF5E74FF080
:1003400000060F46091A88460911914614461546BB
:10035000B14206D018BFA0E8340206F10106B1424E
:10036000F8D108F00F08B8F1000F07D002704FEA7B
:10037000322200F10100B8F10108F4E77047FEE70E
:10038000FEE7FEE7FEE7FEE7FEE7FEE7FEE7FEE745
:10039000FEE7FEE7FEE7FEE7FEE7FEE7FEE7FEE735
:1003A000FEE7FEE7FEE7FEE7FEE7FEE7FEE7FEE725
:1003B000FEE7FEE7FEE7FEE7FEE7FEE7FEE7FEE715
:1003C000FEE7FEE7FEE7FEE7FEE7FEE7FEE7FEE705
:1003D000FEE7FEE7FEE7FEE7FEE7FEE7FEE7FEE7F5
:1003E000FEE7FEE7FEE7FEE7FEE7FEE7FEE7FEE7E5
:1003F000FEE7FEE7FEE7FEE7FEE7FEE7FEE7FEE7D5
:10040000FEE7FEE7FEE7FEE7FEE7FEE7FEE7FEE7C4
:10041000FEE7FEE7FEE7FEE7FEE7FEE7FEE7FEE7B4
:10042000FEE7FEE7FEE7FEE7FEE7FEE7FEE7FEE7A4
:10043000FEE7FEE7704700000000A2A2A2A2008033
:100440000340088003401080034030800340348024
:1004500003403880034018080240000000F00020EC
:1004600000000120F90E0020000000000000000044
:10047000000000200000002090010020B0040020B7
:10048000B0040020101200201012002010120020D2
:100490002012002020120020901200209012002034
:1004A00000F00020F9100020F50F002000000000EF
:1004B00010B5054C237833B9044B13B10448AFF39E
:1004C00000800123237010BD2012002000000000D6
:1004D000E81100200C4B43B10C4810B50C49AFF3A8
:1004E00000800C48036823B910BD0A48036833B97B
:1004F0007047094B002BF7D0BDE810401847064B5A
:10050000002BF5D0184700BF00000000E8110020C4
:1005100024120020101200200000000080B582B0DC
:1005200000AF0F4B5B68FB710D4B9B68DAB2FB7938
:100530001340FB71FB7903F00203BB71BB79002B05
:1005400001D000F0E5F8FB7903F001037B717B79C2
:10055000002B01D000F006F800BF0837BD4680BD73
:100560000060014080B584B000AF624B1B78022B65
:100570003DD0052B68D0012B40F0AA805E4B1B8834
:100580009BB2002B2FD05D4B1A685B4B1B889BB234
:100590001946104600F00AFAF860574B1B889BB2C8
:1005A0001A46FB689A420FD9534B1B889AB2FB68D4
:1005B0009BB2D31A9AB2504B1A80504B1A68FB6800
:1005C00013444E4A136090E04B4B00221A804C4B70
:1005D0001B68002B03D0474B02221A7085E0454B65
:1005E00003221A7081E000BE00F0BAF97DE0444BAE
:1005F0001B68002B24D0434B1A68414B1B681946DB
:10060000104600F0D3F9B8603D4B1B68BA689A42B7
:100610000CD23B4B1A68BB68D31A394A1360394B6A
:100620001A68BB681344374A13605EE0364A364B9B
:100630009B6823F0010393602E4B03221A7054E051
:1006400000BE00F08DF950E02D4B1B68002B1BD134
:100650002E4B1B68002B14D02C4B1B682948984745
:100660000246274B1A60264B1B68002B0CD1264AEA
:10067000254B9B6823F0010393601E4B03221A70E5
:1006800002E000BE00F06CF91D4B1B68002B09D185
:100690001D4A1D4B9B6823F001039360154B0322F9
:1006A0001A7022E0174B1A68154B1B681946104642
:1006B00000F07CF97860124B1A687B68D31A104AF4
:1006C0001360104B1A687B6813440E4A13600CE0E9
:1006D0000D4A0D4B9B6823F001039360002000F04E
:1006E0001FF9044B00221A7000BF00BF1037BD462F
:1006F00080BD00BF61120020441200204012002083
:100700004C12002048120020006001405C120020C2
:1007100080B584B000AF7C4B1B69FB81FB8923F45F
:10072000FF4323F07F03BB81FB89FB72774B1B7870
:10073000052B00F2D68001A252F823F055070020C5
:10074000CF080020CF080020AD070020FB070020C5
:10075000A3080020BB89002B00F0CA80FB7AF12B94
:1007600006D0FB7ABB72BB7A184600F04FF9BFE0A7
:10077000674B00221A80674B1B68654A128892B249
:100780001344FA7A1A70624B1B889BB201339AB2F7
:100790005F4B1A805F4B1B685D4A128892B213440C
:1007A00000221A70594B04221A70A1E0BB89002B59
:1007B00000F0A080FB7A7B72574B1B78DBB27A7A11
:1007C0009A4215D1524B00221A80524B1B68504A54
:1007D000128892B213447A7A1A704D4B1B889BB2DE
:1007E00001339AB24A4B1A80484B04221A7081E0B6
:1007F0007B7A184600F00AF97CE0BB89002B06D012
:10080000FB7A3B723B7A184600F000F974E0414BEA
:100810001A683F4B1B889BB2013B13441B78F12B9A
:1008200016D13C4B1B683A4A128892B21344FA7AAA
:100830001A70384B1A68364B1B889BB2013B134425
:100840001B78184600F0E2F8304B00221A7053E093
:100850002F4B1B889AB2314B1B889A4210D2FB7ADD
:10086000FB712C4B1B682A4A128892B21344FA7906
:100870001A70274B1B889BB201339AB2244B1A8003
:10088000234B1B889AB2254B1B889A4234D1204BAC
:100890001B889BB2184600F043F81C4B00221A70CC
:1008A0002AE0BB89002B0BD11A4B1B680133FA7A63
:1008B0001A70022000F034F8144B00221A701EE067
:1008C000FB7ABB71BB79184600F0A0F817E0BB8932
:1008D000002B13D0FB7A7B717B79184600F096F8D9
:1008E0000CE0002000F01CF8084B00221A7006E013
:1008F00000BF04E000BF02E000BF00E000BF00BF97
:100900001037BD4680BD00BF00600140611200206D
:1009100056120020501200203C12002054120020D9
:1009200080B582B000AF0346FB800A4B1B68002BEA
:100930000CD0084B1B68084A1268F9881046984783
:10094000044B00221A60054B00221A7000BF0837C2
:10095000BD4680BD581200205012002060120020B9
:1009600080B582B000AF0E4B1B78DBB2002B13D0EA
:100970000C4B1B889BB21846FFF7D2FF0A4A0A4B62
:100980001B6843F001031360074B1B6803F001036E
:100990007B607B68002BF7D100BF0837BD4680BD68
:1009A00060120020561200200060014080B485B023
:1009B00000AF78603960144A134B1B6823F00403BE
:1009C00013600023FB60104B5B6803F00103BB6006
:1009D0000DE00D497A68FB6813441B780B61FB68D6
:1009E0000133FB60084B5B6803F00103BB60BB682D
:1009F000002B03D0FA683B689A42EAD3FB6818469A
:100A00001437BD4680BC70470060014080B582B09D
:100A100000AF0346FB71064B1B68002B04D0044B50
:100A20001B68FA791046984700BF0837BD4680BD5D
:100A30006412002090B484B000AFF860B9607A60AE
:100A4000FB704C484C4B1A68F97813469B001344D2
:100A5000DB01034403F5E27319604849464B1A6809
:100A600013469B0013449B000B440433FA681A603E
:100A70004249414B1A6813469B0013449B000B44A8
:100A80000833BA681A603D483B4B19683B4C3A4BF7
:100A90001A6813469B0013449B0023440C331B68C5
:100AA0001A0C12040B469B000B449B0003440C33AE
:100AB0001A607B68B3F5803F0FD97B68A3F580335C
:100AC0002F4A1361BB6803F580332D4AD360FB685E
:100AD00003F580332A4A936019E02848264B1A68A8
:100AE000264C254B19680B469B000B449B00234466
:100AF0000C331B68796889B2194313469B00134471
:100B00009B0003440C3319601D4B00221A611B48E3
:100B1000194B1A68194C184B19680B469B000B446B
:100B20009B0023440C331B6843F4E00113469B00F5
:100B300013449B0003440C3319600E490E4B1A6892
:100B400013469B001344DB010B4403F5E0730122C1
:100B50001A600849084B1A6813469B001344DB01CE
:100B60000B4403F5E67300221A6000BF1037BD4640
:100B700090BC7047000028428012002000400140D5
:100B800068120020684620F007018D4691B500AF3D
:100B9000354A364B1B6803F52873012142F82310B0
:100BA0003348324B1A68324C304B19680B469B0065
:100BB0000B449B0023440C331B6823F4E0011346D1
:100BC0009B0013449B0003440C331960274B1B68A4
:100BD0000133264A1360254B1B68042B02D1234B9B
:100BE00000221A60234B1B69002B17D0224B1B6875
:100BF000042B03D1204B00221A6004E01E4B1B681B
:100C000001331D4A13601B4B98681A4BD968194B66
:100C10001A69184B1B7DFFF70DFF1EE01449134B9B
:100C20001A6813469B0013449B000B440C331B684B
:100C300003F4E003002B10D10C4B00221A600E4B82
:100C400000221A600B4B01221A700A4B5B68002BC2
:100C500003D0084B5B680120984700BFBD46BDE844
:100C600091408546704700BF000028428412002052
:100C7000004001406812002080120020684620F0E9
:100C800007018D4681B583B000AF384B1B683B60D0
:100C90003B6803F470633B603B68002B2FD0344902
:100CA000344B1A6813469B001344DB010B4403F5D5
:100CB00002731B68002B0AD02F4B02221A702E4B96
:100CC0005B68002B03D02C4B5B68022098472849B7
:100CD000284B1A6813469B001344DB010B4403F5B1
:100CE00003731B68002B0AD0234B03221A70224B7C
:100CF0005B68002B03D0204B5B68032098471B4B9D
:100D00001B683B603B6803F470433B603B68002B0F
:100D10000AD0194B04221A70174B5B68002B03D0C2
:100D2000154B5B680420984700237B6014E0104952
:100D30007A6813469B001344DB010B4403F5E4730C
:100D400001221A600A4A7B6803F52873012142F8E0
:100D500023107B6801337B607B68032BE7D900BFDE
:100D60000C37BD46BDE881408546704700400140D4
:100D700000002842841200206812002080B483B052
:100D800000AF0346FB71094997F907305B09FA790F
:100D900002F01F02012000FA02F2203341F8232062
:100DA00000BF0C37BD4680BC704700BF00E100E0CB
:100DB00080B483B000AF0346FB71094997F907304F
:100DC0005B09FA7902F01F02012000FA02F2603397
:100DD00041F8232000BF0C37BD4680BC704700BFE0
:100DE00000E100E080B582B000AF1A4A194B9B6C5D
:100DF00043F480139364174A164B9B6C43F0F073D3
:100E0000936400237B6012E0134A7B68134493F9D8
:100E100000301846FFF7B2FF0F4A7B68134493F97E
:100E200000301846FFF7C4FF7B6801337B607B68A6
:100E30001F2BE9D9074A074B9B6C23F0F07393648F
:100E4000044A044B9B6C23F48013936400BF08375F
:100E5000BD4680BD00800340C011002080B485B035
:100E600000AF03463960FB71FB79FB60FB681F2B09
:100E700000D900BEFB681F2B05D8054AFB6852F855
:100E800023303A681A6000BF1437BD4680BC7047F3
:100E90004011002080B485B000AF03460A46FB71C4
:100EA0001346BB71FB79FB60FB681F2B00D900BEAA
:100EB000FB681F2B18D80F4BD3F88830BB6001227A
:100EC000FB6802FA03F3DB43BA681340BB60BB79EB
:100ED00003F00102FB6802FA03F3BA681343BB6034
:100EE000044ABB68C2F8883000BF1437BD4680BCD6
:100EF000704700BF0030014080B500AF00F030F80F
:100F0000044A044B5B6943F400735361FFF792FAA0
:100F100000BF80BD00ED00E080B483B000AF0E4B99
:100F2000D3F84C313B603B684FF60202934203D04A
:100F30000A4A934203D005E001237B6005E00223C7
:100F40007B6002E000237B6000BF7B6818460C37A3
:100F5000BD4680BC704700BF0080034002F801001E
:100F600080B582B000AFFFF7D7FF78607B68012BB8
:100F700000D002E000F006F800BF00BF0837BD4611
:100F800080BD000080B400AF094A094BD3F8983007
:100F900043F48073C2F89830054A054BD3F8983073
:100FA00023F08063C2F8983000BFBD4680BC704714
:100FB0000080034080B400AF034BD3F8883018465C
:100FC000BD4680BC704700BF0030014080B483B094
:100FD00000AF074B1B68DB097B6000BF7B685A1EB4
:100FE0007A60002BFADC00BF0C37BD4680BC70472E
:100FF0001412002080B582B000AFFFF7F3FE00238B
:101000007B6012E03B4A7B6813441B78052118463D
:10101000FFF724FF374A7B6813441B7800211846EA
:10102000FFF738FF7B6801337B607B68072BE9DDC6
:10103000FFF7CCFFFFF7CAFFFFF7C8FFFFF7C6FFB8
:1010400000237B6028E000233B600AE0294A3B68DC
:1010500013441B7801211846FFF71CFF3B6801333E
:101060003B603B68072BF1DDFFF7B0FF00233B60DF
:101070000AE0204A3B6813441B7800211846FFF71A
:1010800009FF3B6801333B603B68072BF1DDFFF74D
:101090009DFF7B6801337B607B68072BD3DD0023DA
:1010A0007B6023E0FFF786FF0146124A7B6813440A
:1010B0001B781A46012393400B40002B14BF0123D9
:1010C0000023DBB23B600B4A7B6813441A783B6811
:1010D0005BB283F001035BB2DBB219461046FFF747
:1010E000D9FEFFF773FF7B6801337B607B68072BBA
:1010F000D8DDD4E7E011002070B500250C4E0D4C72
:10110000A41BA410A54209D100F06EF800250A4ED8
:101110000A4CA41BA410A54205D170BD56F8253079
:1011200098470135EEE756F8253098470135F2E744
:1011300000120020001200200012002004120020E3
:101140000030014004300140083001400C300140C3
:101150001030014014300140183001401C30014073
:101160002030014024300140283001402C30014023
:101170003030014034300140383001403C300140D3
:101180004030014044300140483001404C30014083
:101190005030014054300140583001405C30014033
:1011A0006030014064300140683001406C300140E3
:1011B0007030014074300140783001407C30014093
:1011C00032333435363738393A3B3C3D3E3F404187
:1011D00042434445464748494A4B4C4D4E4F505177
:1011E0000001020304050607F8B500BFF8BC08BCFF
:1011F0009E467047F8B500BFF8BC08BC9E467047D5
:10120000D5040020B1040020000000000000000010
:101210000000000000E1F5050000000000000000F3
:040000052000019145
:00000001FF
